:1080000021145768697465005555555265640055CB
:1080100000004F72616E67650055280059656C6CF1
:108020006F7700555500477265656E000055004337
:1080300079616E00002828426C756500000055507B
:108040007572706C65002800324C696C61630020A9
:10805000085550696E6B0055305557686974650056
:10806000526564004F72616E67650059656C6C6F94
:108070007700477265656E004379616E00426C75EA
:108080006500507572706C65004C696C61630050DE
:10809000696E6B00C0E07590F4D290E590C290F5E7
:1080A000F0D290E590C290E5F020E7EAD0E022110E
:1080B00094F954F0F590D29000C290E9540FC4F5B1
:1080C00090D29000C2907590F07F00DFFE22119454
:1080D000F954F04402F590D29000C290E9540FC4D4
:1080E0004402F590D29000C2907590F07F00DFFEC0
:1080F00022C2907F00DFFE742811AF7F00DFFE7484
:108100001811AF740E11AF740611AF740211AF7471
:108110000111AF2211F1D2B2D2B3D2B49080027564
:10812000380AE493FBE538604FE4EB6005A311CE19
:1081300080F0A3E493F532A3E493F534A3E493F53C
:1081400036A37530FFAF30EF95324004D2B28002D3
:10815000C2B2EF95344004D2B38002C2B3EF953679
:108160004004D2B48002C2B4DFDDDED6D2B2D2B3D4
:0A817000D2B411F1153880AA80FE88
:00000001FF
